{
  "contractName": "Cv",
  "abi": [
    {
      "constant": true,
      "inputs": [],
      "name": "userCount",
      "outputs": [
        {
          "name": "",
          "type": "uint128"
        }
      ],
      "payable": false,
      "stateMutability": "view",
      "type": "function"
    },
    {
      "constant": true,
      "inputs": [
        {
          "name": "",
          "type": "uint256"
        }
      ],
      "name": "users",
      "outputs": [
        {
          "name": "user_address",
          "type": "address"
        },
        {
          "name": "user_name",
          "type": "string"
        },
        {
          "name": "user_type",
          "type": "uint8"
        }
      ],
      "payable": false,
      "stateMutability": "view",
      "type": "function"
    },
    {
      "constant": true,
      "inputs": [],
      "name": "itemCount",
      "outputs": [
        {
          "name": "",
          "type": "uint128"
        }
      ],
      "payable": false,
      "stateMutability": "view",
      "type": "function"
    },
    {
      "constant": true,
      "inputs": [
        {
          "name": "",
          "type": "uint256"
        }
      ],
      "name": "items",
      "outputs": [
        {
          "name": "item_type",
          "type": "uint8"
        },
        {
          "name": "nom",
          "type": "string"
        },
        {
          "name": "description",
          "type": "string"
        },
        {
          "name": "url",
          "type": "string"
        },
        {
          "name": "date",
          "type": "uint256"
        },
        {
          "name": "validated_by",
          "type": "address"
        },
        {
          "name": "file_sha1",
          "type": "string"
        }
      ],
      "payable": false,
      "stateMutability": "view",
      "type": "function"
    },
    {
      "inputs": [],
      "payable": false,
      "stateMutability": "nonpayable",
      "type": "constructor"
    },
    {
      "constant": false,
      "inputs": [
        {
          "name": "_user_address",
          "type": "address"
        },
        {
          "name": "_user_name",
          "type": "string"
        },
        {
          "name": "_user_type",
          "type": "uint8"
        }
      ],
      "name": "CreateUser",
      "outputs": [
        {
          "name": "success",
          "type": "bool"
        }
      ],
      "payable": false,
      "stateMutability": "nonpayable",
      "type": "function"
    },
    {
      "constant": true,
      "inputs": [
        {
          "name": "_user_address",
          "type": "address"
        }
      ],
      "name": "getUser",
      "outputs": [
        {
          "name": "",
          "type": "address"
        },
        {
          "name": "",
          "type": "string"
        },
        {
          "name": "",
          "type": "uint8"
        }
      ],
      "payable": false,
      "stateMutability": "view",
      "type": "function"
    },
    {
      "constant": true,
      "inputs": [],
      "name": "getFirstUser",
      "outputs": [
        {
          "name": "",
          "type": "address"
        },
        {
          "name": "",
          "type": "string"
        },
        {
          "name": "",
          "type": "uint8"
        }
      ],
      "payable": false,
      "stateMutability": "view",
      "type": "function"
    },
    {
      "constant": false,
      "inputs": [
        {
          "name": "_item_type",
          "type": "uint8"
        },
        {
          "name": "_nom",
          "type": "string"
        },
        {
          "name": "_description",
          "type": "string"
        },
        {
          "name": "_url",
          "type": "string"
        },
        {
          "name": "_file_sha1",
          "type": "string"
        }
      ],
      "name": "createItem",
      "outputs": [
        {
          "name": "success",
          "type": "bool"
        }
      ],
      "payable": false,
      "stateMutability": "nonpayable",
      "type": "function"
    },
    {
      "constant": true,
      "inputs": [],
      "name": "getItemsCountForUser",
      "outputs": [
        {
          "name": "",
          "type": "uint32"
        }
      ],
      "payable": false,
      "stateMutability": "view",
      "type": "function"
    },
    {
      "constant": true,
      "inputs": [
        {
          "name": "_index",
          "type": "uint32"
        }
      ],
      "name": "getItemsIdByUserIndex",
      "outputs": [
        {
          "name": "",
          "type": "uint128"
        }
      ],
      "payable": false,
      "stateMutability": "view",
      "type": "function"
    },
    {
      "constant": true,
      "inputs": [
        {
          "name": "_index",
          "type": "uint128"
        }
      ],
      "name": "getItemsByItemIndexForUser",
      "outputs": [
        {
          "name": "",
          "type": "uint8"
        },
        {
          "name": "",
          "type": "string"
        },
        {
          "name": "",
          "type": "string"
        },
        {
          "name": "",
          "type": "string"
        },
        {
          "name": "",
          "type": "string"
        },
        {
          "name": "",
          "type": "address"
        }
      ],
      "payable": false,
      "stateMutability": "view",
      "type": "function"
    },
    {
      "constant": true,
      "inputs": [
        {
          "name": "_index",
          "type": "uint128"
        }
      ],
      "name": "getItemsByItemIndex",
      "outputs": [
        {
          "name": "",
          "type": "address"
        },
        {
          "name": "",
          "type": "uint8"
        },
        {
          "name": "",
          "type": "string"
        },
        {
          "name": "",
          "type": "string"
        },
        {
          "name": "",
          "type": "string"
        },
        {
          "name": "",
          "type": "string"
        },
        {
          "name": "",
          "type": "address"
        }
      ],
      "payable": false,
      "stateMutability": "view",
      "type": "function"
    },
    {
      "constant": false,
      "inputs": [
        {
          "name": "_index",
          "type": "uint128"
        }
      ],
      "name": "validateItem",
      "outputs": [],
      "payable": false,
      "stateMutability": "nonpayable",
      "type": "function"
    }
  ],
  "bytecode": "0x608060405234801561001057600080fd5b50336000806101000a81548173ffffffffffffffffffffffffffffffffffffffff021916908373ffffffffffffffffffffffffffffffffffffffff160217905550612909806100606000396000f3006080604052600436106100c5576000357c0100000000000000000000000000000000000000000000000000000000900463ffffffff16806307973ccf146100ca57806308893f37146101195780631743de7a14610279578063312adbcf14610327578063365b98b2146103925780636bfb0d01146104785780636f77926b146104c75780637efec40f146105c35780638456b04c146107ff578063b24825a51461083e578063b8cec7e814610aad578063bfb231d214610b7d578063f1d0fada14610dae575b600080fd5b3480156100d657600080fd5b506100df610de5565b60405180826fffffffffffffffffffffffffffffffff166fffffffffffffffffffffffffffffffff16815260200191505060405180910390f35b34801561012557600080fd5b5061025f600480360381019080803560ff169060200190929190803590602001908201803590602001908080601f0160208091040260200160405190810160405280939291908181526020018383808284378201915050505050509192919290803590602001908201803590602001908080601f0160208091040260200160405190810160405280939291908181526020018383808284378201915050505050509192919290803590602001908201803590602001908080601f0160208091040260200160405190810160405280939291908181526020018383808284378201915050505050509192919290803590602001908201803590602001908080601f0160208091040260200160405190810160405280939291908181526020018383808284378201915050505050509192919290505050610e07565b604051808215151515815260200191505060405180910390f35b34801561028557600080fd5b5061030d600480360381019080803573ffffffffffffffffffffffffffffffffffffffff169060200190929190803590602001908201803590602001908080601f0160208091040260200160405190810160405280939291908181526020018383808284378201915050505050509192919290803560ff1690602001909291905050506111e1565b604051808215151515815260200191505060405180910390f35b34801561033357600080fd5b50610358600480360381019080803563ffffffff1690602001909291905050506113f3565b60405180826fffffffffffffffffffffffffffffffff166fffffffffffffffffffffffffffffffff16815260200191505060405180910390f35b34801561039e57600080fd5b506103bd60048036038101908080359060200190929190505050611475565b604051808473ffffffffffffffffffffffffffffffffffffffff1673ffffffffffffffffffffffffffffffffffffffff168152602001806020018360ff1660ff168152602001828103825284818151815260200191508051906020019080838360005b8381101561043b578082015181840152602081019050610420565b50505050905090810190601f1680156104685780820380516001836020036101000a031916815260200191505b5094505050505060405180910390f35b34801561048457600080fd5b5061048d611573565b60405180826fffffffffffffffffffffffffffffffff166fffffffffffffffffffffffffffffffff16815260200191505060405180910390f35b3480156104d357600080fd5b50610508600480360381019080803573ffffffffffffffffffffffffffffffffffffffff169060200190929190505050611595565b604051808473ffffffffffffffffffffffffffffffffffffffff1673ffffffffffffffffffffffffffffffffffffffff168152602001806020018360ff1660ff168152602001828103825284818151815260200191508051906020019080838360005b8381101561058657808201518184015260208101905061056b565b50505050905090810190601f1680156105b35780820380516001836020036101000a031916815260200191505b5094505050505060405180910390f35b3480156105cf57600080fd5b5061060060048036038101908080356fffffffffffffffffffffffffffffffff169060200190929190505050611770565b604051808760ff1660ff168152602001806020018060200180602001806020018673ffffffffffffffffffffffffffffffffffffffff1673ffffffffffffffffffffffffffffffffffffffff16815260200185810385528a818151815260200191508051906020019080838360005b8381101561068a57808201518184015260208101905061066f565b50505050905090810190601f1680156106b75780820380516001836020036101000a031916815260200191505b50858103845289818151815260200191508051906020019080838360005b838110156106f05780820151818401526020810190506106d5565b50505050905090810190601f16801561071d5780820380516001836020036101000a031916815260200191505b50858103835288818151815260200191508051906020019080838360005b8381101561075657808201518184015260208101905061073b565b50505050905090810190601f1680156107835780820380516001836020036101000a031916815260200191505b50858103825287818151815260200191508051906020019080838360005b838110156107bc5780820151818401526020810190506107a1565b50505050905090810190601f1680156107e95780820380516001836020036101000a031916815260200191505b509a505050505050505050505060405180910390f35b34801561080b57600080fd5b5061083c60048036038101908080356fffffffffffffffffffffffffffffffff169060200190929190505050611c13565b005b34801561084a57600080fd5b5061087b60048036038101908080356fffffffffffffffffffffffffffffffff169060200190929190505050611d40565b604051808873ffffffffffffffffffffffffffffffffffffffff1673ffffffffffffffffffffffffffffffffffffffff1681526020018760ff1660ff168152602001806020018060200180602001806020018673ffffffffffffffffffffffffffffffffffffffff1673ffffffffffffffffffffffffffffffffffffffff16815260200185810385528a818151815260200191508051906020019080838360005b8381101561093757808201518184015260208101905061091c565b50505050905090810190601f1680156109645780820380516001836020036101000a031916815260200191505b50858103845289818151815260200191508051906020019080838360005b8381101561099d578082015181840152602081019050610982565b50505050905090810190601f1680156109ca5780820380516001836020036101000a031916815260200191505b50858103835288818151815260200191508051906020019080838360005b83811015610a035780820151818401526020810190506109e8565b50505050905090810190601f168015610a305780820380516001836020036101000a031916815260200191505b50858103825287818151815260200191508051906020019080838360005b83811015610a69578082015181840152602081019050610a4e565b50505050905090810190601f168015610a965780820380516001836020036101000a031916815260200191505b509b50505050505050505050505060405180910390f35b348015610ab957600080fd5b50610ac2612304565b604051808473ffffffffffffffffffffffffffffffffffffffff1673ffffffffffffffffffffffffffffffffffffffff168152602001806020018360ff1660ff168152602001828103825284818151815260200191508051906020019080838360005b83811015610b40578082015181840152602081019050610b25565b50505050905090810190601f168015610b6d5780820380516001836020036101000a031916815260200191505b5094505050505060405180910390f35b348015610b8957600080fd5b50610ba860048036038101908080359060200190929190505050612471565b604051808860ff1660ff1681526020018060200180602001806020018781526020018673ffffffffffffffffffffffffffffffffffffffff1673ffffffffffffffffffffffffffffffffffffffff1681526020018060200185810385528b818151815260200191508051906020019080838360005b83811015610c38578082015181840152602081019050610c1d565b50505050905090810190601f168015610c655780820380516001836020036101000a031916815260200191505b5085810384528a818151815260200191508051906020019080838360005b83811015610c9e578082015181840152602081019050610c83565b50505050905090810190601f168015610ccb5780820380516001836020036101000a031916815260200191505b50858103835289818151815260200191508051906020019080838360005b83811015610d04578082015181840152602081019050610ce9565b50505050905090810190601f168015610d315780820380516001836020036101000a031916815260200191505b50858103825286818151815260200191508051906020019080838360005b83811015610d6a578082015181840152602081019050610d4f565b50505050905090810190601f168015610d975780820380516001836020036101000a031916815260200191505b509b50505050505050505050505060405180910390f35b348015610dba57600080fd5b50610dc361274f565b604051808263ffffffff1663ffffffff16815260200191505060405180910390f35b600160109054906101000a90046fffffffffffffffffffffffffffffffff1681565b6000610e116127a6565b86816000019060ff16908160ff168152505085816020018190525084816040018190525083816060018190525042816080018181525050828160c001819052506002819080600181540180825580915050906001820390600052602060002090600702016000909192909190915060008201518160000160006101000a81548160ff021916908360ff1602179055506020820151816001019080519060200190610ebc9291906127fd565b506040820151816002019080519060200190610ed99291906127fd565b506060820151816003019080519060200190610ef69291906127fd565b506080820151816004015560a08201518160050160006101000a81548173ffffffffffffffffffffffffffffffffffffffff021916908373ffffffffffffffffffffffffffffffffffffffff16021790555060c0820151816006019080519060200190610f649291906127fd565b505050503360056000600160009054906101000a90046fffffffffffffffffffffffffffffffff166fffffffffffffffffffffffffffffffff166fffffffffffffffffffffffffffffffff16815260200190815260200160002060006101000a81548173ffffffffffffffffffffffffffffffffffffffff021916908373ffffffffffffffffffffffffffffffffffffffff160217905550600160009054906101000a90046fffffffffffffffffffffffffffffffff16600660003373ffffffffffffffffffffffffffffffffffffffff1673ffffffffffffffffffffffffffffffffffffffff1681526020019081526020016000206000600460003373ffffffffffffffffffffffffffffffffffffffff1673ffffffffffffffffffffffffffffffffffffffff16815260200190815260200160002060009054906101000a900463ffffffff1663ffffffff1663ffffffff16815260200190815260200160002060006101000a8154816fffffffffffffffffffffffffffffffff02191690836fffffffffffffffffffffffffffffffff1602179055506001600081819054906101000a90046fffffffffffffffffffffffffffffffff168092919060010191906101000a8154816fffffffffffffffffffffffffffffffff02191690836fffffffffffffffffffffffffffffffff16021790555050600460003373ffffffffffffffffffffffffffffffffffffffff1673ffffffffffffffffffffffffffffffffffffffff168152602001908152602001600020600081819054906101000a900463ffffffff168092919060010191906101000a81548163ffffffff021916908363ffffffff16021790555050600191505095945050505050565b60006111eb61287d565b84816000019073ffffffffffffffffffffffffffffffffffffffff16908173ffffffffffffffffffffffffffffffffffffffff168152505083816020018190525082816040019060ff16908160ff1681525050600160109054906101000a90046fffffffffffffffffffffffffffffffff16600760008773ffffffffffffffffffffffffffffffffffffffff1673ffffffffffffffffffffffffffffffffffffffff16815260200190815260200160002060006101000a8154816fffffffffffffffffffffffffffffffff02191690836fffffffffffffffffffffffffffffffff1602179055506003819080600181540180825580915050906001820390600052602060002090600302016000909192909190915060008201518160000160006101000a81548173ffffffffffffffffffffffffffffffffffffffff021916908373ffffffffffffffffffffffffffffffffffffffff16021790555060208201518160010190805190602001906113639291906127fd565b5060408201518160020160006101000a81548160ff021916908360ff1602179055505050506001601081819054906101000a90046fffffffffffffffffffffffffffffffff168092919060010191906101000a8154816fffffffffffffffffffffffffffffffff02191690836fffffffffffffffffffffffffffffffff1602179055505060019150509392505050565b6000600660003373ffffffffffffffffffffffffffffffffffffffff1673ffffffffffffffffffffffffffffffffffffffff16815260200190815260200160002060008363ffffffff1663ffffffff16815260200190815260200160002060009054906101000a90046fffffffffffffffffffffffffffffffff169050919050565b60038181548110151561148457fe5b90600052602060002090600302016000915090508060000160009054906101000a900473ffffffffffffffffffffffffffffffffffffffff1690806001018054600181600116156101000203166002900480601f0160208091040260200160405190810160405280929190818152602001828054600181600116156101000203166002900480156115565780601f1061152b57610100808354040283529160200191611556565b820191906000526020600020905b81548152906001019060200180831161153957829003601f168201915b5050505050908060020160009054906101000a900460ff16905083565b600160009054906101000a90046fffffffffffffffffffffffffffffffff1681565b6000606060006115a361287d565b6003600760008773ffffffffffffffffffffffffffffffffffffffff1673ffffffffffffffffffffffffffffffffffffffff16815260200190815260200160002060009054906101000a90046fffffffffffffffffffffffffffffffff166fffffffffffffffffffffffffffffffff1681548110151561161f57fe5b9060005260206000209060030201606060405190810160405290816000820160009054906101000a900473ffffffffffffffffffffffffffffffffffffffff1673ffffffffffffffffffffffffffffffffffffffff1673ffffffffffffffffffffffffffffffffffffffff168152602001600182018054600181600116156101000203166002900480601f0160208091040260200160405190810160405280929190818152602001828054600181600116156101000203166002900480156117285780601f106116fd57610100808354040283529160200191611728565b820191906000526020600020905b81548152906001019060200180831161170b57829003601f168201915b505050505081526020016002820160009054906101000a900460ff1660ff1660ff16815250509050806000015181602001518260400151819150935093509350509193909250565b60006060806060806000600160009054906101000a90046fffffffffffffffffffffffffffffffff166fffffffffffffffffffffffffffffffff16876fffffffffffffffffffffffffffffffff16101515611833576040517f08c379a00000000000000000000000000000000000000000000000000000000081526004018080602001828103825260178152602001807f54686973204974656d20646f65736e277420657869737400000000000000000081525060200191505060405180910390fd5b6002876fffffffffffffffffffffffffffffffff1681548110151561185457fe5b906000526020600020906007020160000160009054906101000a900460ff166002886fffffffffffffffffffffffffffffffff1681548110151561189457fe5b90600052602060002090600702016001016002896fffffffffffffffffffffffffffffffff168154811015156118c657fe5b906000526020600020906007020160020160028a6fffffffffffffffffffffffffffffffff168154811015156118f857fe5b906000526020600020906007020160030160028b6fffffffffffffffffffffffffffffffff1681548110151561192a57fe5b906000526020600020906007020160060160028c6fffffffffffffffffffffffffffffffff1681548110151561195c57fe5b906000526020600020906007020160050160009054906101000a900473ffffffffffffffffffffffffffffffffffffffff16848054600181600116156101000203166002900480601f016020809104026020016040519081016040528092919081815260200182805460018160011615610100020316600290048015611a235780601f106119f857610100808354040283529160200191611a23565b820191906000526020600020905b815481529060010190602001808311611a0657829003601f168201915b50505050509450838054600181600116156101000203166002900480601f016020809104026020016040519081016040528092919081815260200182805460018160011615610100020316600290048015611abf5780601f10611a9457610100808354040283529160200191611abf565b820191906000526020600020905b815481529060010190602001808311611aa257829003601f168201915b50505050509350828054600181600116156101000203166002900480601f016020809104026020016040519081016040528092919081815260200182805460018160011615610100020316600290048015611b5b5780601f10611b3057610100808354040283529160200191611b5b565b820191906000526020600020905b815481529060010190602001808311611b3e57829003601f168201915b50505050509250818054600181600116156101000203166002900480601f016020809104026020016040519081016040528092919081815260200182805460018160011615610100020316600290048015611bf75780601f10611bcc57610100808354040283529160200191611bf7565b820191906000526020600020905b815481529060010190602001808311611bda57829003601f168201915b5050505050915095509550955095509550955091939550919395565b600160009054906101000a90046fffffffffffffffffffffffffffffffff166fffffffffffffffffffffffffffffffff16816fffffffffffffffffffffffffffffffff16101515611ccc576040517f08c379a00000000000000000000000000000000000000000000000000000000081526004018080602001828103825260178152602001807f54686973204974656d20646f65736e277420657869737400000000000000000081525060200191505060405180910390fd5b336002826fffffffffffffffffffffffffffffffff16815481101515611cee57fe5b906000526020600020906007020160050160006101000a81548173ffffffffffffffffffffffffffffffffffffffff021916908373ffffffffffffffffffffffffffffffffffffffff16021790555050565b60008060608060608060008060009054906101000a900473ffffffffffffffffffffffffffffffffffffffff1673ffffffffffffffffffffffffffffffffffffffff163373ffffffffffffffffffffffffffffffffffffffff16141515611e0f576040517f08c379a000000000000000000000000000000000000000000000000000000000815260040180806020018281038252601e8152602001807f596f75206d7573742062652074686520636f6e7472616374206f776e6572000081525060200191505060405180910390fd5b600160009054906101000a90046fffffffffffffffffffffffffffffffff166fffffffffffffffffffffffffffffffff16886fffffffffffffffffffffffffffffffff16101515611ec8576040517f08c379a00000000000000000000000000000000000000000000000000000000081526004018080602001828103825260178152602001807f54686973204974656d20646f65736e277420657869737400000000000000000081525060200191505060405180910390fd5b60056000896fffffffffffffffffffffffffffffffff166fffffffffffffffffffffffffffffffff16815260200190815260200160002060009054906101000a900473ffffffffffffffffffffffffffffffffffffffff166002896fffffffffffffffffffffffffffffffff16815481101515611f4157fe5b906000526020600020906007020160000160009054906101000a900460ff1660028a6fffffffffffffffffffffffffffffffff16815481101515611f8157fe5b906000526020600020906007020160010160028b6fffffffffffffffffffffffffffffffff16815481101515611fb357fe5b906000526020600020906007020160020160028c6fffffffffffffffffffffffffffffffff16815481101515611fe557fe5b906000526020600020906007020160030160028d6fffffffffffffffffffffffffffffffff1681548110151561201757fe5b906000526020600020906007020160060160028e6fffffffffffffffffffffffffffffffff1681548110151561204957fe5b906000526020600020906007020160050160009054906101000a900473ffffffffffffffffffffffffffffffffffffffff16848054600181600116156101000203166002900480601f0160208091040260200160405190810160405280929190818152602001828054600181600116156101000203166002900480156121105780601f106120e557610100808354040283529160200191612110565b820191906000526020600020905b8154815290600101906020018083116120f357829003601f168201915b50505050509450838054600181600116156101000203166002900480601f0160208091040260200160405190810160405280929190818152602001828054600181600116156101000203166002900480156121ac5780601f10612181576101008083540402835291602001916121ac565b820191906000526020600020905b81548152906001019060200180831161218f57829003601f168201915b50505050509350828054600181600116156101000203166002900480601f0160208091040260200160405190810160405280929190818152602001828054600181600116156101000203166002900480156122485780601f1061221d57610100808354040283529160200191612248565b820191906000526020600020905b81548152906001019060200180831161222b57829003601f168201915b50505050509250818054600181600116156101000203166002900480601f0160208091040260200160405190810160405280929190818152602001828054600181600116156101000203166002900480156122e45780601f106122b9576101008083540402835291602001916122e4565b820191906000526020600020905b8154815290600101906020018083116122c757829003601f168201915b505050505091509650965096509650965096509650919395979092949650565b60006060600061231261287d565b6003600081548110151561232257fe5b9060005260206000209060030201606060405190810160405290816000820160009054906101000a900473ffffffffffffffffffffffffffffffffffffffff1673ffffffffffffffffffffffffffffffffffffffff1673ffffffffffffffffffffffffffffffffffffffff168152602001600182018054600181600116156101000203166002900480601f01602080910402602001604051908101604052809291908181526020018280546001816001161561010002031660029004801561242b5780601f106124005761010080835404028352916020019161242b565b820191906000526020600020905b81548152906001019060200180831161240e57829003601f168201915b505050505081526020016002820160009054906101000a900460ff1660ff1660ff1681525050905080600001518160200151826040015181915093509350935050909192565b60028181548110151561248057fe5b90600052602060002090600702016000915090508060000160009054906101000a900460ff1690806001018054600181600116156101000203166002900480601f01602080910402602001604051908101604052809291908181526020018280546001816001161561010002031660029004801561253f5780601f106125145761010080835404028352916020019161253f565b820191906000526020600020905b81548152906001019060200180831161252257829003601f168201915b505050505090806002018054600181600116156101000203166002900480601f0160208091040260200160405190810160405280929190818152602001828054600181600116156101000203166002900480156125dd5780601f106125b2576101008083540402835291602001916125dd565b820191906000526020600020905b8154815290600101906020018083116125c057829003601f168201915b505050505090806003018054600181600116156101000203166002900480601f01602080910402602001604051908101604052809291908181526020018280546001816001161561010002031660029004801561267b5780601f106126505761010080835404028352916020019161267b565b820191906000526020600020905b81548152906001019060200180831161265e57829003601f168201915b5050505050908060040154908060050160009054906101000a900473ffffffffffffffffffffffffffffffffffffffff1690806006018054600181600116156101000203166002900480601f0160208091040260200160405190810160405280929190818152602001828054600181600116156101000203166002900480156127455780601f1061271a57610100808354040283529160200191612745565b820191906000526020600020905b81548152906001019060200180831161272857829003601f168201915b5050505050905087565b6000600460003373ffffffffffffffffffffffffffffffffffffffff1673ffffffffffffffffffffffffffffffffffffffff16815260200190815260200160002060009054906101000a900463ffffffff16905090565b60e060405190810160405280600060ff16815260200160608152602001606081526020016060815260200160008152602001600073ffffffffffffffffffffffffffffffffffffffff168152602001606081525090565b828054600181600116156101000203166002900490600052602060002090601f016020900481019282601f1061283e57805160ff191683800117855561286c565b8280016001018555821561286c579182015b8281111561286b578251825591602001919060010190612850565b5b50905061287991906128b8565b5090565b606060405190810160405280600073ffffffffffffffffffffffffffffffffffffffff16815260200160608152602001600060ff1681525090565b6128da91905b808211156128d65760008160009055506001016128be565b5090565b905600a165627a7a72305820fee8e05e0c3a8c8b7485552bedaa8c8bc92ba545b5d0eb84458bbb9d6eee45420029",
  "source": "pragma solidity ^0.4.5;\r\n\r\n//mettre les modifiers pour interdire certaines fonction\r\n// mettre un status pour autoriser certaines fonctions que selon certains status (see state machine pattern dans doc solidity)\r\n//IPFS\r\n\r\ncontract Cv {\r\n\r\n   uint80 constant None = uint80(0);\r\n\t// dfinir les evts\r\n\tstruct Item {\r\n\t\t\tuint8 item_type;             // 1 : Diplme, 2 : Fiche de paie, 3 : Justificatif de domicile, 4 : document d'assurance\r\n\t\t\tstring nom;\r\n\t\t\tstring description;\r\n\t\t\tstring url;\r\n\t\t\tuint date;\r\n\t\t\taddress validated_by;\r\n\t\t\tstring file_sha1;\r\n\t}\r\n\r\n  struct User {\r\n    address user_address;\r\n    string  user_name;\r\n    uint8   user_type;     // 1: citoyen, 2: validation entity\r\n  }\r\n\r\n\taddress owner;\r\n\tuint128 public itemCount;         //Nombre des docs\r\n  uint128 public userCount;         //Nombre des utilisateurs\r\n\tItem[] public items;             //La liste de tout les docs\r\n  User[] public users;             //La liste de tout les utilisateurs\r\n\tmapping (address => uint32) itemCountByUser;   //Nombre de docs par utilisateur\r\n\tmapping (uint128 => address) userByItem; //itemIndex -> address\r\n\tmapping (address => mapping (uint32 => uint128)) itemByIdByUser; //address -> itemIndexByUser -> itemIndex\r\n  mapping (address => uint128) usersIndex; //address to index_user\r\n\r\n\r\n    modifier onlyBy(address _account)\r\n    {\r\n        require(msg.sender == _account,\"Sender not authorized.\");\r\n        _;\r\n    }\r\n    modifier onlyOwner()\r\n    {\r\n        require(msg.sender == owner,\"You must be the contract owner\");\r\n        _;\r\n    }\r\n\t//\tmodifier onlyValidateur()\r\n\t\t//{\r\n\t\t   // require(isValidateur(msg.sender),\"You must be a validateur\");\r\n\t    //\t_;\r\n\t//\t}\r\n\r\n\t//\tmodifier onlyNormalUser()\r\n\t//\t{\r\n\t//\t\t\trequire( !isValidateur(msg.sender),\"You must be a normal user\");\r\n\t//\t\t\t_;\r\n\t//\t}\r\n\r\n    constructor() public {\r\n        owner = msg.sender;\r\n    }\r\n\r\n    //Ajouter un utilisateur en indiquant sa nature\r\n\tfunction CreateUser(address _user_address, string  _user_name, uint8  _user_type) public returns (bool success) {\r\n\t\t\t\tUser memory newUser;\r\n        newUser.user_address = _user_address;\r\n        newUser.user_name = _user_name;\r\n        newUser.user_type = _user_type;\r\n        usersIndex[_user_address] = userCount; // add user to users mapping\r\n        users.push(newUser);\r\n        userCount++;\r\n        return true;\r\n\t\t}\r\n\r\n  //getter of user\r\n  function getUser(address _user_address) external view returns(address,string, uint8 ){\r\n        User memory user;\r\n        user=users[usersIndex[_user_address]];\r\n        return (user.user_address , user.user_name , user.user_type);\r\n    }\r\n\r\n  //Test function\r\n  function getFirstUser() external view returns(address,string,uint8) {\r\n        User memory user;\r\n        user = users[0];\r\n        return (user.user_address , user.user_name , user.user_type);\r\n    }\r\n\r\n\t// Enregistre un nouvel item\r\n\tfunction createItem(uint8 _item_type, string _nom, string _description, string _url, string _file_sha1)  public  returns (bool success) { //onlyNormalUser\r\n\t\tItem memory newItem;\r\n\t\tnewItem.item_type = _item_type;\r\n\t\tnewItem.nom = _nom;\r\n\t\tnewItem.description = _description;\r\n\t\tnewItem.url = _url;\r\n\t\tnewItem.date = now;\r\n\t\tnewItem.file_sha1 = _file_sha1;\r\n\t\titems.push(newItem);\r\n\r\n\t\tuserByItem[itemCount] = msg.sender;\r\n\t\titemByIdByUser[msg.sender][itemCountByUser[msg.sender]] = itemCount;\r\n\t\titemCount++;\r\n\t\titemCountByUser[msg.sender]++;\r\n\t\treturn true;\r\n\t}\r\n\r\n\t// Rcuprer le nombre d'item d'un utilisateur\r\n\tfunction getItemsCountForUser() external view returns(uint32)  {\r\n\t\treturn itemCountByUser[msg.sender];\r\n\t}\r\n\r\n\tfunction getItemsIdByUserIndex(uint32 _index) external view returns(uint128) {\r\n\t\treturn itemByIdByUser[msg.sender][_index];\r\n\t}\r\n\r\n\tfunction getItemsByItemIndexForUser(uint128 _index) external view returns(uint8, string, string, string, string,address) {\r\n\t\t//require(msg.sender == userByItem[_index],\"item owner is not who asked to see item\");\r\n\t    require(_index < itemCount,\"This Item doesn't exist\");\r\n\t\treturn (items[_index].item_type,\r\n\t\t        items[_index].nom,\r\n\t\t        items[_index].description,\r\n\t\t        items[_index].url,\r\n\t\t        items[_index].file_sha1,\r\n\t\t        items[_index].validated_by\r\n\t\t        );\r\n\t}\r\n\r\n\tfunction getItemsByItemIndex(uint128 _index) external view onlyOwner returns(address, uint8, string, string, string, string,address)  {\r\n\t    require (_index < itemCount,\"This Item doesn't exist\");\r\n\t\treturn (userByItem[_index],\r\n\t\t        items[_index].item_type,\r\n\t\t        items[_index].nom,\r\n\t\t        items[_index].description,\r\n\t\t        items[_index].url,\r\n\t\t        items[_index].file_sha1,\r\n\t\t        items[_index].validated_by\r\n\t\t        );\r\n\t}\r\n\r\n\t//function isValidateur(address _address) public returns (bool){\r\n\t//\t\tif (users[_address].user_type == 2 ){\r\n\t//\t\t\t\treturn true;\r\n\t\t//\t}\r\n\t\t//\treturn false;\r\n\t//}\r\n\r\n\tfunction validateItem(uint128 _index) external {  // onlyValidateur\r\n\t  require (_index < itemCount,\"This Item doesn't exist\");\r\n\t\titems[_index].validated_by = msg.sender;\r\n\t}\r\n}\r\n",
  "sourcePath": "C:\\Users\\user\\Desktop\\Work_SII_Group\\POC_Blockchain_Frederic\\cv_dev\\contracts\\Cv.sol",
  "compiler": {
    "name": "solc",
    "version": "0.4.23+commit.124ca40d.Emscripten.clang"
  },
  "schemaVersion": "2.0.0",
  "updatedAt": "2019-05-24T10:14:15.220Z"
}