{
  "contractName": "Cv",
  "abi": [
    {
      "constant": true,
      "inputs": [],
      "name": "itemCount",
      "outputs": [
        {
          "name": "",
          "type": "uint128"
        }
      ],
      "payable": false,
      "stateMutability": "view",
      "type": "function"
    },
    {
      "constant": true,
      "inputs": [
        {
          "name": "",
          "type": "uint256"
        }
      ],
      "name": "items",
      "outputs": [
        {
          "name": "item_type",
          "type": "uint8"
        },
        {
          "name": "nom",
          "type": "string"
        },
        {
          "name": "description",
          "type": "string"
        },
        {
          "name": "url",
          "type": "string"
        },
        {
          "name": "validated_by",
          "type": "address"
        },
        {
          "name": "file_sha1",
          "type": "string"
        }
      ],
      "payable": false,
      "stateMutability": "view",
      "type": "function"
    },
    {
      "inputs": [],
      "payable": false,
      "stateMutability": "nonpayable",
      "type": "constructor"
    },
    {
      "constant": false,
      "inputs": [
        {
          "name": "_item_type",
          "type": "uint8"
        },
        {
          "name": "_nom",
          "type": "string"
        },
        {
          "name": "_description",
          "type": "string"
        },
        {
          "name": "_url",
          "type": "string"
        },
        {
          "name": "_file_sha1",
          "type": "string"
        }
      ],
      "name": "createItem",
      "outputs": [
        {
          "name": "success",
          "type": "bool"
        }
      ],
      "payable": false,
      "stateMutability": "nonpayable",
      "type": "function"
    },
    {
      "constant": true,
      "inputs": [],
      "name": "getItemsCountForUser",
      "outputs": [
        {
          "name": "",
          "type": "uint32"
        }
      ],
      "payable": false,
      "stateMutability": "view",
      "type": "function"
    },
    {
      "constant": true,
      "inputs": [
        {
          "name": "_index",
          "type": "uint32"
        }
      ],
      "name": "getItemsIdByUserIndex",
      "outputs": [
        {
          "name": "",
          "type": "uint128"
        }
      ],
      "payable": false,
      "stateMutability": "view",
      "type": "function"
    },
    {
      "constant": true,
      "inputs": [
        {
          "name": "_index",
          "type": "uint128"
        }
      ],
      "name": "getItemsByItemIndexForUser",
      "outputs": [
        {
          "name": "",
          "type": "uint8"
        },
        {
          "name": "",
          "type": "string"
        },
        {
          "name": "",
          "type": "string"
        },
        {
          "name": "",
          "type": "string"
        },
        {
          "name": "",
          "type": "string"
        },
        {
          "name": "",
          "type": "address"
        }
      ],
      "payable": false,
      "stateMutability": "view",
      "type": "function"
    },
    {
      "constant": true,
      "inputs": [
        {
          "name": "_index",
          "type": "uint128"
        }
      ],
      "name": "getItemsByItemIndex",
      "outputs": [
        {
          "name": "",
          "type": "address"
        },
        {
          "name": "",
          "type": "uint8"
        },
        {
          "name": "",
          "type": "string"
        },
        {
          "name": "",
          "type": "string"
        },
        {
          "name": "",
          "type": "string"
        },
        {
          "name": "",
          "type": "string"
        },
        {
          "name": "",
          "type": "address"
        }
      ],
      "payable": false,
      "stateMutability": "view",
      "type": "function"
    },
    {
      "constant": false,
      "inputs": [
        {
          "name": "_index",
          "type": "uint128"
        }
      ],
      "name": "validateItem",
      "outputs": [],
      "payable": false,
      "stateMutability": "nonpayable",
      "type": "function"
    }
  ],
  "bytecode": "0x608060405234801561001057600080fd5b50336000806101000a81548173ffffffffffffffffffffffffffffffffffffffff021916908373ffffffffffffffffffffffffffffffffffffffff160217905550611f0a806100606000396000f30060806040526004361061008e576000357c0100000000000000000000000000000000000000000000000000000000900463ffffffff16806308893f3714610093578063312adbcf146101f35780636bfb0d011461025e5780637efec40f146102ad5780638456b04c146104e9578063b24825a514610528578063bfb231d214610797578063f1d0fada146109c1575b600080fd5b34801561009f57600080fd5b506101d9600480360381019080803560ff169060200190929190803590602001908201803590602001908080601f0160208091040260200160405190810160405280939291908181526020018383808284378201915050505050509192919290803590602001908201803590602001908080601f0160208091040260200160405190810160405280939291908181526020018383808284378201915050505050509192919290803590602001908201803590602001908080601f0160208091040260200160405190810160405280939291908181526020018383808284378201915050505050509192919290803590602001908201803590602001908080601f01602080910402602001604051908101604052809392919081815260200183838082843782019150505050505091929192905050506109f8565b604051808215151515815260200191505060405180910390f35b3480156101ff57600080fd5b50610224600480360381019080803563ffffffff169060200190929190505050610dbe565b60405180826fffffffffffffffffffffffffffffffff166fffffffffffffffffffffffffffffffff16815260200191505060405180910390f35b34801561026a57600080fd5b50610273610e40565b60405180826fffffffffffffffffffffffffffffffff166fffffffffffffffffffffffffffffffff16815260200191505060405180910390f35b3480156102b957600080fd5b506102ea60048036038101908080356fffffffffffffffffffffffffffffffff169060200190929190505050610e62565b604051808760ff1660ff168152602001806020018060200180602001806020018673ffffffffffffffffffffffffffffffffffffffff1673ffffffffffffffffffffffffffffffffffffffff16815260200185810385528a818151815260200191508051906020019080838360005b83811015610374578082015181840152602081019050610359565b50505050905090810190601f1680156103a15780820380516001836020036101000a031916815260200191505b50858103845289818151815260200191508051906020019080838360005b838110156103da5780820151818401526020810190506103bf565b50505050905090810190601f1680156104075780820380516001836020036101000a031916815260200191505b50858103835288818151815260200191508051906020019080838360005b83811015610440578082015181840152602081019050610425565b50505050905090810190601f16801561046d5780820380516001836020036101000a031916815260200191505b50858103825287818151815260200191508051906020019080838360005b838110156104a657808201518184015260208101905061048b565b50505050905090810190601f1680156104d35780820380516001836020036101000a031916815260200191505b509a505050505050505050505060405180910390f35b3480156104f557600080fd5b5061052660048036038101908080356fffffffffffffffffffffffffffffffff169060200190929190505050611305565b005b34801561053457600080fd5b5061056560048036038101908080356fffffffffffffffffffffffffffffffff1690602001909291905050506114f6565b604051808873ffffffffffffffffffffffffffffffffffffffff1673ffffffffffffffffffffffffffffffffffffffff1681526020018760ff1660ff168152602001806020018060200180602001806020018673ffffffffffffffffffffffffffffffffffffffff1673ffffffffffffffffffffffffffffffffffffffff16815260200185810385528a818151815260200191508051906020019080838360005b83811015610621578082015181840152602081019050610606565b50505050905090810190601f16801561064e5780820380516001836020036101000a031916815260200191505b50858103845289818151815260200191508051906020019080838360005b8381101561068757808201518184015260208101905061066c565b50505050905090810190601f1680156106b45780820380516001836020036101000a031916815260200191505b50858103835288818151815260200191508051906020019080838360005b838110156106ed5780820151818401526020810190506106d2565b50505050905090810190601f16801561071a5780820380516001836020036101000a031916815260200191505b50858103825287818151815260200191508051906020019080838360005b83811015610753578082015181840152602081019050610738565b50505050905090810190601f1680156107805780820380516001836020036101000a031916815260200191505b509b50505050505050505050505060405180910390f35b3480156107a357600080fd5b506107c260048036038101908080359060200190929190505050611aba565b604051808760ff1660ff1681526020018060200180602001806020018673ffffffffffffffffffffffffffffffffffffffff1673ffffffffffffffffffffffffffffffffffffffff1681526020018060200185810385528a818151815260200191508051906020019080838360005b8381101561084c578082015181840152602081019050610831565b50505050905090810190601f1680156108795780820380516001836020036101000a031916815260200191505b50858103845289818151815260200191508051906020019080838360005b838110156108b2578082015181840152602081019050610897565b50505050905090810190601f1680156108df5780820380516001836020036101000a031916815260200191505b50858103835288818151815260200191508051906020019080838360005b838110156109185780820151818401526020810190506108fd565b50505050905090810190601f1680156109455780820380516001836020036101000a031916815260200191505b50858103825286818151815260200191508051906020019080838360005b8381101561097e578082015181840152602081019050610963565b50505050905090810190601f1680156109ab5780820380516001836020036101000a031916815260200191505b509a505050505050505050505060405180910390f35b3480156109cd57600080fd5b506109d6611d92565b604051808263ffffffff1663ffffffff16815260200191505060405180910390f35b6000610a02611de9565b86816000019060ff16908160ff1681525050858160200181905250848160400181905250838160600181905250828160a001819052506002819080600181540180825580915050906001820390600052602060002090600602016000909192909190915060008201518160000160006101000a81548160ff021916908360ff1602179055506020820151816001019080519060200190610aa3929190611e39565b506040820151816002019080519060200190610ac0929190611e39565b506060820151816003019080519060200190610add929190611e39565b5060808201518160040160006101000a81548173ffffffffffffffffffffffffffffffffffffffff021916908373ffffffffffffffffffffffffffffffffffffffff16021790555060a0820151816005019080519060200190610b41929190611e39565b505050503360046000600160009054906101000a90046fffffffffffffffffffffffffffffffff166fffffffffffffffffffffffffffffffff166fffffffffffffffffffffffffffffffff16815260200190815260200160002060006101000a81548173ffffffffffffffffffffffffffffffffffffffff021916908373ffffffffffffffffffffffffffffffffffffffff160217905550600160009054906101000a90046fffffffffffffffffffffffffffffffff16600560003373ffffffffffffffffffffffffffffffffffffffff1673ffffffffffffffffffffffffffffffffffffffff1681526020019081526020016000206000600360003373ffffffffffffffffffffffffffffffffffffffff1673ffffffffffffffffffffffffffffffffffffffff16815260200190815260200160002060009054906101000a900463ffffffff1663ffffffff1663ffffffff16815260200190815260200160002060006101000a8154816fffffffffffffffffffffffffffffffff02191690836fffffffffffffffffffffffffffffffff1602179055506001600081819054906101000a90046fffffffffffffffffffffffffffffffff168092919060010191906101000a8154816fffffffffffffffffffffffffffffffff02191690836fffffffffffffffffffffffffffffffff16021790555050600360003373ffffffffffffffffffffffffffffffffffffffff1673ffffffffffffffffffffffffffffffffffffffff168152602001908152602001600020600081819054906101000a900463ffffffff168092919060010191906101000a81548163ffffffff021916908363ffffffff16021790555050600191505095945050505050565b6000600560003373ffffffffffffffffffffffffffffffffffffffff1673ffffffffffffffffffffffffffffffffffffffff16815260200190815260200160002060008363ffffffff1663ffffffff16815260200190815260200160002060009054906101000a90046fffffffffffffffffffffffffffffffff169050919050565b600160009054906101000a90046fffffffffffffffffffffffffffffffff1681565b60006060806060806000600160009054906101000a90046fffffffffffffffffffffffffffffffff166fffffffffffffffffffffffffffffffff16876fffffffffffffffffffffffffffffffff16101515610f25576040517f08c379a00000000000000000000000000000000000000000000000000000000081526004018080602001828103825260178152602001807f54686973204974656d20646f65736e277420657869737400000000000000000081525060200191505060405180910390fd5b6002876fffffffffffffffffffffffffffffffff16815481101515610f4657fe5b906000526020600020906006020160000160009054906101000a900460ff166002886fffffffffffffffffffffffffffffffff16815481101515610f8657fe5b90600052602060002090600602016001016002896fffffffffffffffffffffffffffffffff16815481101515610fb857fe5b906000526020600020906006020160020160028a6fffffffffffffffffffffffffffffffff16815481101515610fea57fe5b906000526020600020906006020160030160028b6fffffffffffffffffffffffffffffffff1681548110151561101c57fe5b906000526020600020906006020160050160028c6fffffffffffffffffffffffffffffffff1681548110151561104e57fe5b906000526020600020906006020160040160009054906101000a900473ffffffffffffffffffffffffffffffffffffffff16848054600181600116156101000203166002900480601f0160208091040260200160405190810160405280929190818152602001828054600181600116156101000203166002900480156111155780601f106110ea57610100808354040283529160200191611115565b820191906000526020600020905b8154815290600101906020018083116110f857829003601f168201915b50505050509450838054600181600116156101000203166002900480601f0160208091040260200160405190810160405280929190818152602001828054600181600116156101000203166002900480156111b15780601f10611186576101008083540402835291602001916111b1565b820191906000526020600020905b81548152906001019060200180831161119457829003601f168201915b50505050509350828054600181600116156101000203166002900480601f01602080910402602001604051908101604052809291908181526020018280546001816001161561010002031660029004801561124d5780601f106112225761010080835404028352916020019161124d565b820191906000526020600020905b81548152906001019060200180831161123057829003601f168201915b50505050509250818054600181600116156101000203166002900480601f0160208091040260200160405190810160405280929190818152602001828054600181600116156101000203166002900480156112e95780601f106112be576101008083540402835291602001916112e9565b820191906000526020600020905b8154815290600101906020018083116112cc57829003601f168201915b5050505050915095509550955095509550955091939550919395565b6000809054906101000a900473ffffffffffffffffffffffffffffffffffffffff1673ffffffffffffffffffffffffffffffffffffffff163373ffffffffffffffffffffffffffffffffffffffff161415156113c9576040517f08c379a000000000000000000000000000000000000000000000000000000000815260040180806020018281038252601e8152602001807f596f75206d7573742062652074686520636f6e7472616374206f776e6572000081525060200191505060405180910390fd5b600160009054906101000a90046fffffffffffffffffffffffffffffffff166fffffffffffffffffffffffffffffffff16816fffffffffffffffffffffffffffffffff16101515611482576040517f08c379a00000000000000000000000000000000000000000000000000000000081526004018080602001828103825260178152602001807f54686973204974656d20646f65736e277420657869737400000000000000000081525060200191505060405180910390fd5b336002826fffffffffffffffffffffffffffffffff168154811015156114a457fe5b906000526020600020906006020160040160006101000a81548173ffffffffffffffffffffffffffffffffffffffff021916908373ffffffffffffffffffffffffffffffffffffffff16021790555050565b60008060608060608060008060009054906101000a900473ffffffffffffffffffffffffffffffffffffffff1673ffffffffffffffffffffffffffffffffffffffff163373ffffffffffffffffffffffffffffffffffffffff161415156115c5576040517f08c379a000000000000000000000000000000000000000000000000000000000815260040180806020018281038252601e8152602001807f596f75206d7573742062652074686520636f6e7472616374206f776e6572000081525060200191505060405180910390fd5b600160009054906101000a90046fffffffffffffffffffffffffffffffff166fffffffffffffffffffffffffffffffff16886fffffffffffffffffffffffffffffffff1610151561167e576040517f08c379a00000000000000000000000000000000000000000000000000000000081526004018080602001828103825260178152602001807f54686973204974656d20646f65736e277420657869737400000000000000000081525060200191505060405180910390fd5b60046000896fffffffffffffffffffffffffffffffff166fffffffffffffffffffffffffffffffff16815260200190815260200160002060009054906101000a900473ffffffffffffffffffffffffffffffffffffffff166002896fffffffffffffffffffffffffffffffff168154811015156116f757fe5b906000526020600020906006020160000160009054906101000a900460ff1660028a6fffffffffffffffffffffffffffffffff1681548110151561173757fe5b906000526020600020906006020160010160028b6fffffffffffffffffffffffffffffffff1681548110151561176957fe5b906000526020600020906006020160020160028c6fffffffffffffffffffffffffffffffff1681548110151561179b57fe5b906000526020600020906006020160030160028d6fffffffffffffffffffffffffffffffff168154811015156117cd57fe5b906000526020600020906006020160050160028e6fffffffffffffffffffffffffffffffff168154811015156117ff57fe5b906000526020600020906006020160040160009054906101000a900473ffffffffffffffffffffffffffffffffffffffff16848054600181600116156101000203166002900480601f0160208091040260200160405190810160405280929190818152602001828054600181600116156101000203166002900480156118c65780601f1061189b576101008083540402835291602001916118c6565b820191906000526020600020905b8154815290600101906020018083116118a957829003601f168201915b50505050509450838054600181600116156101000203166002900480601f0160208091040260200160405190810160405280929190818152602001828054600181600116156101000203166002900480156119625780601f1061193757610100808354040283529160200191611962565b820191906000526020600020905b81548152906001019060200180831161194557829003601f168201915b50505050509350828054600181600116156101000203166002900480601f0160208091040260200160405190810160405280929190818152602001828054600181600116156101000203166002900480156119fe5780601f106119d3576101008083540402835291602001916119fe565b820191906000526020600020905b8154815290600101906020018083116119e157829003601f168201915b50505050509250818054600181600116156101000203166002900480601f016020809104026020016040519081016040528092919081815260200182805460018160011615610100020316600290048015611a9a5780601f10611a6f57610100808354040283529160200191611a9a565b820191906000526020600020905b815481529060010190602001808311611a7d57829003601f168201915b505050505091509650965096509650965096509650919395979092949650565b600281815481101515611ac957fe5b90600052602060002090600602016000915090508060000160009054906101000a900460ff1690806001018054600181600116156101000203166002900480601f016020809104026020016040519081016040528092919081815260200182805460018160011615610100020316600290048015611b885780601f10611b5d57610100808354040283529160200191611b88565b820191906000526020600020905b815481529060010190602001808311611b6b57829003601f168201915b505050505090806002018054600181600116156101000203166002900480601f016020809104026020016040519081016040528092919081815260200182805460018160011615610100020316600290048015611c265780601f10611bfb57610100808354040283529160200191611c26565b820191906000526020600020905b815481529060010190602001808311611c0957829003601f168201915b505050505090806003018054600181600116156101000203166002900480601f016020809104026020016040519081016040528092919081815260200182805460018160011615610100020316600290048015611cc45780601f10611c9957610100808354040283529160200191611cc4565b820191906000526020600020905b815481529060010190602001808311611ca757829003601f168201915b5050505050908060040160009054906101000a900473ffffffffffffffffffffffffffffffffffffffff1690806005018054600181600116156101000203166002900480601f016020809104026020016040519081016040528092919081815260200182805460018160011615610100020316600290048015611d885780601f10611d5d57610100808354040283529160200191611d88565b820191906000526020600020905b815481529060010190602001808311611d6b57829003601f168201915b5050505050905086565b6000600360003373ffffffffffffffffffffffffffffffffffffffff1673ffffffffffffffffffffffffffffffffffffffff16815260200190815260200160002060009054906101000a900463ffffffff16905090565b60c060405190810160405280600060ff168152602001606081526020016060815260200160608152602001600073ffffffffffffffffffffffffffffffffffffffff168152602001606081525090565b828054600181600116156101000203166002900490600052602060002090601f016020900481019282601f10611e7a57805160ff1916838001178555611ea8565b82800160010185558215611ea8579182015b82811115611ea7578251825591602001919060010190611e8c565b5b509050611eb59190611eb9565b5090565b611edb91905b80821115611ed7576000816000905550600101611ebf565b5090565b905600a165627a7a723058201fbb46e6b23da8d7719ce60a5db7fce703db32d2a81b7506625630d774c927980029",
  "source": "pragma solidity ^0.4.5;\r\n\r\n//mettre les modifiers pour interdire certaines fonction\r\n// mettre un status pour autoriser certaines fonctions que selon certains status (see state machine pattern dans doc solidity)\r\n//IPFS\r\n\r\ncontract Cv {\r\n\r\n\t// d�finir les evts\r\n\tstruct Item {\r\n\t\t\tuint8 item_type;             // 1 : Diplome, 2 : Exp�rience, 3 : Certification\r\n\t\t\tstring nom;\r\n\t\t\tstring description;\r\n\t\t\tstring url;\r\n\t\t\taddress validated_by;\r\n\t\t\tstring file_sha1;\r\n\t}\r\n\r\n\taddress owner;\r\n\tuint128 public itemCount;\r\n\tItem[] public items;\r\n\tmapping (address => uint32) itemCountByUser;\r\n\tmapping (uint128 => address) userByItem; //itemIndex -> address\r\n\tmapping (address => mapping (uint32 => uint128)) itemByIdByUser; //address -> itemIndexByUser -> itemIndex\r\n\r\n    modifier onlyBy(address _account)\r\n    {\r\n        require(msg.sender == _account,\"Sender not authorized.\");\r\n        _;\r\n    }\r\n    modifier onlyOwner()\r\n    {\r\n        require(msg.sender == owner,\"You must be the contract owner\");\r\n        _;\r\n    }\r\n\r\n    constructor() public {\r\n        owner = msg.sender;\r\n    }\r\n\r\n\t// Enregistre un nouvel item\r\n\tfunction createItem(uint8 _item_type, string _nom, string _description, string _url, string _file_sha1)  public returns (bool success) {\r\n\t\tItem memory newItem;\r\n\t\tnewItem.item_type = _item_type;\r\n\t\tnewItem.nom = _nom;\r\n\t\tnewItem.description = _description;\r\n\t\tnewItem.url = _url;\r\n\t\tnewItem.file_sha1 = _file_sha1;\r\n\t\titems.push(newItem);\r\n\r\n\t\tuserByItem[itemCount] = msg.sender;\r\n\t\titemByIdByUser[msg.sender][itemCountByUser[msg.sender]] = itemCount;\r\n\t\titemCount++;\r\n\t\titemCountByUser[msg.sender]++;\r\n\t\treturn true;\r\n\t}\r\n\r\n\t// R�cup�rer le nombre d'item d'un utilisateur\r\n\tfunction getItemsCountForUser() external view returns(uint32)  {\r\n\t\treturn itemCountByUser[msg.sender];\r\n\t}\r\n\r\n\tfunction getItemsIdByUserIndex(uint32 _index) external view returns(uint128) {\r\n\t\treturn itemByIdByUser[msg.sender][_index];\r\n\t}\r\n\r\n\tfunction getItemsByItemIndexForUser(uint128 _index) external view returns(uint8, string, string, string, string,address) {\r\n\t\t//require(msg.sender == userByItem[_index],\"item owner is not who asked to see item\");\r\n\t    require(_index < itemCount,\"This Item doesn't exist\");\r\n\t\treturn (items[_index].item_type,\r\n\t\t        items[_index].nom,\r\n\t\t        items[_index].description,\r\n\t\t        items[_index].url,\r\n\t\t        items[_index].file_sha1,\r\n\t\t        items[_index].validated_by\r\n\t\t        );\r\n\t}\r\n\r\n\tfunction getItemsByItemIndex(uint128 _index) external view onlyOwner returns(address, uint8, string, string, string, string,address)  {\r\n\t    require (_index < itemCount,\"This Item doesn't exist\");\r\n\t\treturn (userByItem[_index],\r\n\t\t        items[_index].item_type,\r\n\t\t        items[_index].nom,\r\n\t\t        items[_index].description,\r\n\t\t        items[_index].url,\r\n\t\t        items[_index].file_sha1,\r\n\t\t        items[_index].validated_by\r\n\t\t        );\r\n\t}\r\n\t\r\n\tfunction validateItem(uint128 _index) external onlyOwner  {\r\n\t\t//TODO : ce ne sera plus onlyOwner.\r\n\t    require (_index < itemCount,\"This Item doesn't exist\");\r\n\t\titems[_index].validated_by = msg.sender;\r\n\t}\r\n}\r\n",
  "sourcePath": "C:\\Users\\user\\Desktop\\Work_SII_Group\\POC_Blockchain_Frederic\\cv_dev\\contracts\\Cv.sol",
  "compiler": {
    "name": "solc",
    "version": "0.4.23+commit.124ca40d.Emscripten.clang"
  },
  "schemaVersion": "2.0.0",
  "updatedAt": "2019-05-22T11:10:59.028Z"
}